{
  "_format": "hh-sol-artifact-1",
  "contractName": "SupplyChain",
  "sourceName": "contracts/Contract.sol",
  "abi": [
    {
      "inputs": [],
      "stateMutability": "nonpayable",
      "type": "constructor"
    },
    {
      "inputs": [
        {
          "internalType": "uint256",
          "name": "",
          "type": "uint256"
        }
      ],
      "name": "NUM_TO_STAGE",
      "outputs": [
        {
          "internalType": "enum SupplyChain.STAGE",
          "name": "",
          "type": "uint8"
        }
      ],
      "stateMutability": "view",
      "type": "function"
    },
    {
      "inputs": [
        {
          "internalType": "enum SupplyChain.STAGE",
          "name": "",
          "type": "uint8"
        }
      ],
      "name": "STAGE_TO_NUM",
      "outputs": [
        {
          "internalType": "uint256",
          "name": "",
          "type": "uint256"
        }
      ],
      "stateMutability": "view",
      "type": "function"
    },
    {
      "inputs": [
        {
          "internalType": "string",
          "name": "_name",
          "type": "string"
        },
        {
          "internalType": "string",
          "name": "_location",
          "type": "string"
        },
        {
          "internalType": "enum SupplyChain.STAGE",
          "name": "_role",
          "type": "uint8"
        },
        {
          "internalType": "address",
          "name": "_wallet",
          "type": "address"
        }
      ],
      "name": "createParty",
      "outputs": [],
      "stateMutability": "nonpayable",
      "type": "function"
    },
    {
      "inputs": [
        {
          "internalType": "address",
          "name": "_wallet",
          "type": "address"
        },
        {
          "internalType": "string",
          "name": "_item",
          "type": "string"
        },
        {
          "internalType": "uint256",
          "name": "_quantity",
          "type": "uint256"
        }
      ],
      "name": "createProduct",
      "outputs": [
        {
          "internalType": "uint256",
          "name": "",
          "type": "uint256"
        }
      ],
      "stateMutability": "nonpayable",
      "type": "function"
    },
    {
      "inputs": [
        {
          "internalType": "address",
          "name": "_sender",
          "type": "address"
        },
        {
          "internalType": "address",
          "name": "_receiver",
          "type": "address"
        },
        {
          "internalType": "uint256",
          "name": "_productID",
          "type": "uint256"
        },
        {
          "internalType": "uint256",
          "name": "_price",
          "type": "uint256"
        },
        {
          "internalType": "string",
          "name": "_memo",
          "type": "string"
        }
      ],
      "name": "createTransaction",
      "outputs": [
        {
          "internalType": "uint256",
          "name": "",
          "type": "uint256"
        }
      ],
      "stateMutability": "nonpayable",
      "type": "function"
    },
    {
      "inputs": [],
      "name": "getAllParties",
      "outputs": [
        {
          "components": [
            {
              "internalType": "address",
              "name": "wallet",
              "type": "address"
            },
            {
              "internalType": "string",
              "name": "name",
              "type": "string"
            },
            {
              "internalType": "string",
              "name": "location",
              "type": "string"
            },
            {
              "internalType": "enum SupplyChain.STAGE",
              "name": "role",
              "type": "uint8"
            },
            {
              "internalType": "uint256[]",
              "name": "productIDs",
              "type": "uint256[]"
            }
          ],
          "internalType": "struct SupplyChain.Party[]",
          "name": "",
          "type": "tuple[]"
        }
      ],
      "stateMutability": "view",
      "type": "function"
    },
    {
      "inputs": [
        {
          "internalType": "address",
          "name": "_wallet",
          "type": "address"
        }
      ],
      "name": "getAllProducts",
      "outputs": [
        {
          "components": [
            {
              "internalType": "uint256",
              "name": "id",
              "type": "uint256"
            },
            {
              "internalType": "enum SupplyChain.STAGE",
              "name": "stage",
              "type": "uint8"
            },
            {
              "internalType": "string",
              "name": "item",
              "type": "string"
            },
            {
              "internalType": "uint256",
              "name": "quantity",
              "type": "uint256"
            },
            {
              "internalType": "uint256[]",
              "name": "history",
              "type": "uint256[]"
            },
            {
              "internalType": "address",
              "name": "currentowner",
              "type": "address"
            },
            {
              "internalType": "string",
              "name": "ownerName",
              "type": "string"
            }
          ],
          "internalType": "struct SupplyChain.Product[]",
          "name": "",
          "type": "tuple[]"
        }
      ],
      "stateMutability": "view",
      "type": "function"
    },
    {
      "inputs": [
        {
          "internalType": "address",
          "name": "_partyAddress",
          "type": "address"
        }
      ],
      "name": "getParty",
      "outputs": [
        {
          "components": [
            {
              "internalType": "address",
              "name": "wallet",
              "type": "address"
            },
            {
              "internalType": "string",
              "name": "name",
              "type": "string"
            },
            {
              "internalType": "string",
              "name": "location",
              "type": "string"
            },
            {
              "internalType": "enum SupplyChain.STAGE",
              "name": "role",
              "type": "uint8"
            },
            {
              "internalType": "uint256[]",
              "name": "productIDs",
              "type": "uint256[]"
            }
          ],
          "internalType": "struct SupplyChain.Party",
          "name": "",
          "type": "tuple"
        }
      ],
      "stateMutability": "view",
      "type": "function"
    },
    {
      "inputs": [
        {
          "internalType": "uint256",
          "name": "_productId",
          "type": "uint256"
        }
      ],
      "name": "getProduct",
      "outputs": [
        {
          "components": [
            {
              "internalType": "uint256",
              "name": "id",
              "type": "uint256"
            },
            {
              "internalType": "enum SupplyChain.STAGE",
              "name": "stage",
              "type": "uint8"
            },
            {
              "internalType": "string",
              "name": "item",
              "type": "string"
            },
            {
              "internalType": "uint256",
              "name": "quantity",
              "type": "uint256"
            },
            {
              "internalType": "uint256[]",
              "name": "history",
              "type": "uint256[]"
            },
            {
              "internalType": "address",
              "name": "currentowner",
              "type": "address"
            },
            {
              "internalType": "string",
              "name": "ownerName",
              "type": "string"
            }
          ],
          "internalType": "struct SupplyChain.Product",
          "name": "",
          "type": "tuple"
        }
      ],
      "stateMutability": "view",
      "type": "function"
    },
    {
      "inputs": [
        {
          "internalType": "uint256",
          "name": "_id",
          "type": "uint256"
        }
      ],
      "name": "getTransactionHistory",
      "outputs": [
        {
          "components": [
            {
              "internalType": "uint256",
              "name": "id",
              "type": "uint256"
            },
            {
              "internalType": "address",
              "name": "sender",
              "type": "address"
            },
            {
              "internalType": "address",
              "name": "receiver",
              "type": "address"
            },
            {
              "internalType": "uint256",
              "name": "productID",
              "type": "uint256"
            },
            {
              "internalType": "uint256",
              "name": "price",
              "type": "uint256"
            },
            {
              "internalType": "string",
              "name": "memo",
              "type": "string"
            },
            {
              "internalType": "uint256",
              "name": "timestamp",
              "type": "uint256"
            },
            {
              "internalType": "enum SupplyChain.STAGE",
              "name": "senderStage",
              "type": "uint8"
            },
            {
              "internalType": "enum SupplyChain.STAGE",
              "name": "receiverStage",
              "type": "uint8"
            }
          ],
          "internalType": "struct SupplyChain.Transaction[]",
          "name": "",
          "type": "tuple[]"
        }
      ],
      "stateMutability": "view",
      "type": "function"
    },
    {
      "inputs": [
        {
          "internalType": "address",
          "name": "_wallet",
          "type": "address"
        },
        {
          "internalType": "uint256",
          "name": "_productID",
          "type": "uint256"
        }
      ],
      "name": "giveProduct",
      "outputs": [],
      "stateMutability": "nonpayable",
      "type": "function"
    },
    {
      "inputs": [
        {
          "internalType": "address",
          "name": "_id",
          "type": "address"
        }
      ],
      "name": "isNewParty",
      "outputs": [
        {
          "internalType": "bool",
          "name": "",
          "type": "bool"
        }
      ],
      "stateMutability": "view",
      "type": "function"
    },
    {
      "inputs": [
        {
          "internalType": "address",
          "name": "",
          "type": "address"
        }
      ],
      "name": "parties",
      "outputs": [
        {
          "internalType": "address",
          "name": "wallet",
          "type": "address"
        },
        {
          "internalType": "string",
          "name": "name",
          "type": "string"
        },
        {
          "internalType": "string",
          "name": "location",
          "type": "string"
        },
        {
          "internalType": "enum SupplyChain.STAGE",
          "name": "role",
          "type": "uint8"
        }
      ],
      "stateMutability": "view",
      "type": "function"
    },
    {
      "inputs": [
        {
          "internalType": "uint256",
          "name": "",
          "type": "uint256"
        }
      ],
      "name": "products",
      "outputs": [
        {
          "internalType": "uint256",
          "name": "id",
          "type": "uint256"
        },
        {
          "internalType": "enum SupplyChain.STAGE",
          "name": "stage",
          "type": "uint8"
        },
        {
          "internalType": "string",
          "name": "item",
          "type": "string"
        },
        {
          "internalType": "uint256",
          "name": "quantity",
          "type": "uint256"
        },
        {
          "internalType": "address",
          "name": "currentowner",
          "type": "address"
        },
        {
          "internalType": "string",
          "name": "ownerName",
          "type": "string"
        }
      ],
      "stateMutability": "view",
      "type": "function"
    },
    {
      "inputs": [
        {
          "internalType": "uint256",
          "name": "",
          "type": "uint256"
        }
      ],
      "name": "transactions",
      "outputs": [
        {
          "internalType": "uint256",
          "name": "id",
          "type": "uint256"
        },
        {
          "internalType": "address",
          "name": "sender",
          "type": "address"
        },
        {
          "internalType": "address",
          "name": "receiver",
          "type": "address"
        },
        {
          "internalType": "uint256",
          "name": "productID",
          "type": "uint256"
        },
        {
          "internalType": "uint256",
          "name": "price",
          "type": "uint256"
        },
        {
          "internalType": "string",
          "name": "memo",
          "type": "string"
        },
        {
          "internalType": "uint256",
          "name": "timestamp",
          "type": "uint256"
        },
        {
          "internalType": "enum SupplyChain.STAGE",
          "name": "senderStage",
          "type": "uint8"
        },
        {
          "internalType": "enum SupplyChain.STAGE",
          "name": "receiverStage",
          "type": "uint8"
        }
      ],
      "stateMutability": "view",
      "type": "function"
    }
  ],
  "bytecode": "0x608060405234801561001057600080fd5b5060007f17ef568e3e12ab5b9c7254a8d58478811de00f9e6eb34345acd53bf8fd09d3ec81905560017fabd6e7cb50984ff9c2f3e18a2660c3353dadf4e3291deeb275dae2cd1e44fe0581905560027f91da3fd0782e51c6b3986e9e672fd566868e71f3dbc2d6c2cd6fbb3e361af2a781905560037f2e174c10e159ea99b867ce3205125c24a42d128804e4070ed6fcc8cc98166aa081905560047f1a1e6821cde7d0159c0d293177871e09677b4e42307c7db3ba94f8648a5a050f8190556005948590527f04cde762ef08b6b6c5ded8e8c4c0b3f4e5c9ad7342c88fcc93681b4588b73f0585905560208590527f1471eb6eb2c5e789fc3de43f8ce62938c7d1836ec861730447e2ada8fd81017b805460ff1990811690951790557f89832631fb3c3307a103ba2c84ab569c64d6182a18893dcd163f0f1c2090733a805485169093179092557fa9bc9a3a348c357ba16b37005d7e6b3236198c0e939f4af8c5f19b8deeb8ebc08054841690911790557f3eec716f11ba9e820c81ca75eb978ffb45831ef8b7a53e5e422c26008e1ca6d58054831690911790557f458b30c2d72bfd2c6317304a4594ecbafe5f729d3111b65fdc3a33bd48e5432d80549091169091179055612497806101e56000396000f3fe608060405234801561001057600080fd5b50600436106100f55760003560e01c80639ace38c211610097578063bab890cc11610066578063bab890cc14610254578063c278185114610284578063f692f5e7146102bf578063fb6f8243146102df57600080fd5b80639ace38c2146101e4578063a2adc0841461020c578063b867bfcc1461021f578063b9db15b41461023457600080fd5b80634f235207116100d35780634f235207146101745780637acc0b201461019757806385412a84146101bc578063896687af146101d157600080fd5b80630bfd6aad146100fa5780632851c9b914610123578063396d87cf14610151575b600080fd5b61010d610108366004611cae565b6102ff565b60405161011a9190611e11565b60405180910390f35b610143610131366004611e82565b60046020526000908152604090205481565b60405190815260200161011a565b61016461015f366004611cae565b6107a6565b604051901515815260200161011a565b610187610182366004611cae565b610810565b60405161011a9493929190611e9d565b6101aa6101a5366004611ee3565b610956565b60405161011a96959493929190611efc565b6101cf6101ca366004611ffa565b610aae565b005b6101436101df36600461207f565b610b79565b6101f76101f2366004611ee3565b610dd1565b60405161011a999897969594939291906120f1565b61014361021a366004612164565b610eb7565b610227610fd4565b60405161011a9190612228565b610247610242366004611ee3565b611278565b60405161011a919061227d565b610277610262366004611ee3565b60056020526000908152604090205460ff1681565b60405161011a9190612290565b6101cf6102923660046122a4565b6001600160a01b039091166000908152602081815260408220600401805460018101825590835291200155565b6102d26102cd366004611ee3565b611474565b60405161011a91906122ce565b6102f26102ed366004611cae565b611892565b60405161011a91906123b2565b6001600160a01b03808216600090815260208181526040808320815160a0810190925280549094168152600184018054606095929384019190610341906123c5565b80601f016020809104026020016040519081016040528092919081815260200182805461036d906123c5565b80156103ba5780601f1061038f576101008083540402835291602001916103ba565b820191906000526020600020905b81548152906001019060200180831161039d57829003601f168201915b505050505081526020016002820180546103d3906123c5565b80601f01602080910402602001604051908101604052809291908181526020018280546103ff906123c5565b801561044c5780601f106104215761010080835404028352916020019161044c565b820191906000526020600020905b81548152906001019060200180831161042f57829003601f168201915b5050509183525050600382015460209091019060ff16600581111561047357610473611cd0565b600581111561048457610484611cd0565b8152602001600482018054806020026020016040519081016040528092919081815260200182805480156104d757602002820191906000526020600020905b8154815260200190600101908083116104c3575b5050509190925250505060808101515190915060008167ffffffffffffffff81111561050557610505611f57565b60405190808252806020026020018201604052801561053e57816020015b61052b611a80565b8152602001906001900390816105235790505b50905060005b8281101561079d576000600160008660800151848151811061056857610568612400565b602002602001015181526020019081526020016000206040518060e0016040529081600082015481526020016001820160009054906101000a900460ff1660058111156105b7576105b7611cd0565b60058111156105c8576105c8611cd0565b81526020016002820180546105dc906123c5565b80601f0160208091040260200160405190810160405280929190818152602001828054610608906123c5565b80156106555780601f1061062a57610100808354040283529160200191610655565b820191906000526020600020905b81548152906001019060200180831161063857829003601f168201915b5050505050815260200160038201548152602001600482018054806020026020016040519081016040528092919081815260200182805480156106b757602002820191906000526020600020905b8154815260200190600101908083116106a3575b505050918352505060058201546001600160a01b031660208201526006820180546040909201916106e7906123c5565b80601f0160208091040260200160405190810160405280929190818152602001828054610713906123c5565b80156107605780601f1061073557610100808354040283529160200191610760565b820191906000526020600020905b81548152906001019060200180831161074357829003601f168201915b50505050508152505090508083838151811061077e5761077e612400565b602002602001018190525050808061079590612416565b915050610544565b50949350505050565b6000805b60035481101561080757826001600160a01b0316600382815481106107d1576107d1612400565b6000918252602090912001546001600160a01b031614156107f55750600092915050565b806107ff81612416565b9150506107aa565b50600192915050565b600060208190529081526040902080546001820180546001600160a01b03909216929161083c906123c5565b80601f0160208091040260200160405190810160405280929190818152602001828054610868906123c5565b80156108b55780601f1061088a576101008083540402835291602001916108b5565b820191906000526020600020905b81548152906001019060200180831161089857829003601f168201915b5050505050908060020180546108ca906123c5565b80601f01602080910402602001604051908101604052809291908181526020018280546108f6906123c5565b80156109435780601f1061091857610100808354040283529160200191610943565b820191906000526020600020905b81548152906001019060200180831161092657829003601f168201915b5050506003909301549192505060ff1684565b600160208190526000918252604090912080549181015460028201805460ff9092169291610983906123c5565b80601f01602080910402602001604051908101604052809291908181526020018280546109af906123c5565b80156109fc5780601f106109d1576101008083540402835291602001916109fc565b820191906000526020600020905b8154815290600101906020018083116109df57829003601f168201915b5050505060038301546005840154600685018054949592946001600160a01b03909216935090610a2b906123c5565b80601f0160208091040260200160405190810160405280929190818152602001828054610a57906123c5565b8015610aa45780601f10610a7957610100808354040283529160200191610aa4565b820191906000526020600020905b815481529060010190602001808311610a8757829003601f168201915b5050505050905086565b6001600160a01b03811660008181526020818152604082206003805460018181018355919094527fc2575a0e9e593c00f959f8c92f12db2869c3395a3b0502d05e2516446f71f85b90930180546001600160a01b0319169094179093558651610b1c92840191880190611ac7565b5080546001600160a01b0319166001600160a01b03831617815560038101805484919060ff19166001836005811115610b5757610b57611cd0565b02179055508351610b719060028301906020870190611ac7565b505050505050565b6000806402540be4004233604051602001610bb092919091825260601b6bffffffffffffffffffffffff1916602082015260340190565b6040516020818303038152906040528051906020012060001c610bd3919061243f565b60008181526002602081815260409092208381556001810180546001600160a01b03808e166001600160a01b0319928316179092559282018054918c1691909316179091556003810188905560048101879055855192935091610c3e91600584019190870190611ac7565b504260068201556001600160a01b03881660009081526020819052604090206003015460078201805460ff9092169160ff19166001836005811115610c8557610c85611cd0565b02179055506001600160a01b03871660009081526020819052604090206003015460078201805460ff9092169161ff001916610100836005811115610ccc57610ccc611cd0565b021790555060008681526001602081815260408084206004810180548086018255908652838620018790556005810180546001600160a01b0319166001600160a01b038e169081179091558552848352908420938a90529082905291018054600690920191610d3a906123c5565b610d45929190611b4b565b506001600160a01b0387166000908152602081815260408083206003015489845260019283905292208101805460ff90931692909160ff1990911690836005811115610d9357610d93611cd0565b02179055506001600160a01b038716600090815260208181526040822060040180546001810182559083529120018690555090505b95945050505050565b600260208190526000918252604090912080546001820154928201546003830154600484015460058501805494966001600160a01b039081169694169492939192610e1b906123c5565b80601f0160208091040260200160405190810160405280929190818152602001828054610e47906123c5565b8015610e945780601f10610e6957610100808354040283529160200191610e94565b820191906000526020600020905b815481529060010190602001808311610e7757829003601f168201915b50505050600683015460079093015491929160ff80821692506101009091041689565b6000806402540be4004233604051602001610eee92919091825260601b6bffffffffffffffffffffffff1916602082015260340190565b6040516020818303038152906040528051906020012060001c610f11919061243f565b600081815260016020818152604090922083815560038101879055908101805460ff19169055865192935091610f4f91600284019190880190611ac7565b506005810180546001600160a01b0319166001600160a01b03881690811790915560009081526020819052604090206001018054600683019190610f92906123c5565b610f9d929190611b4b565b50506001600160a01b0385166000908152602081815260408220600401805460018101825590835291200181905590509392505050565b60035460609060008167ffffffffffffffff811115610ff557610ff5611f57565b60405190808252806020026020018201604052801561102e57816020015b61101b611bc6565b8152602001906001900390816110135790505b50905060005b82811015611271576000806003838154811061105257611052612400565b60009182526020808320909101546001600160a01b039081168452838201949094526040928301909120825160a0810190935280549093168252600183018054929392918401916110a2906123c5565b80601f01602080910402602001604051908101604052809291908181526020018280546110ce906123c5565b801561111b5780601f106110f05761010080835404028352916020019161111b565b820191906000526020600020905b8154815290600101906020018083116110fe57829003601f168201915b50505050508152602001600282018054611134906123c5565b80601f0160208091040260200160405190810160405280929190818152602001828054611160906123c5565b80156111ad5780601f10611182576101008083540402835291602001916111ad565b820191906000526020600020905b81548152906001019060200180831161119057829003601f168201915b5050509183525050600382015460209091019060ff1660058111156111d4576111d4611cd0565b60058111156111e5576111e5611cd0565b81526020016004820180548060200260200160405190810160405280929190818152602001828054801561123857602002820191906000526020600020905b815481526020019060010190808311611224575b50505050508152505082828151811061125357611253612400565b6020026020010181905250808061126990612416565b915050611034565b5092915050565b611280611a80565b600082815260016020818152604092839020835160e0810190945280548452918201549083019060ff1660058111156112bb576112bb611cd0565b60058111156112cc576112cc611cd0565b81526020016002820180546112e0906123c5565b80601f016020809104026020016040519081016040528092919081815260200182805461130c906123c5565b80156113595780601f1061132e57610100808354040283529160200191611359565b820191906000526020600020905b81548152906001019060200180831161133c57829003601f168201915b5050505050815260200160038201548152602001600482018054806020026020016040519081016040528092919081815260200182805480156113bb57602002820191906000526020600020905b8154815260200190600101908083116113a7575b505050918352505060058201546001600160a01b031660208201526006820180546040909201916113eb906123c5565b80601f0160208091040260200160405190810160405280929190818152602001828054611417906123c5565b80156114645780601f1061143957610100808354040283529160200191611464565b820191906000526020600020905b81548152906001019060200180831161144757829003601f168201915b5050505050815250509050919050565b6000818152600160208181526040808420815160e08101909252805482529283015460609493919283019060ff1660058111156114b3576114b3611cd0565b60058111156114c4576114c4611cd0565b81526020016002820180546114d8906123c5565b80601f0160208091040260200160405190810160405280929190818152602001828054611504906123c5565b80156115515780601f1061152657610100808354040283529160200191611551565b820191906000526020600020905b81548152906001019060200180831161153457829003601f168201915b5050505050815260200160038201548152602001600482018054806020026020016040519081016040528092919081815260200182805480156115b357602002820191906000526020600020905b81548152602001906001019080831161159f575b505050918352505060058201546001600160a01b031660208201526006820180546040909201916115e3906123c5565b80601f016020809104026020016040519081016040528092919081815260200182805461160f906123c5565b801561165c5780601f106116315761010080835404028352916020019161165c565b820191906000526020600020905b81548152906001019060200180831161163f57829003601f168201915b5050509190925250505060808101515190915060008167ffffffffffffffff81111561168a5761168a611f57565b6040519080825280602002602001820160405280156116c357816020015b6116b0611c0f565b8152602001906001900390816116a85790505b50905060005b8281101561079d57600060026000866080015184815181106116ed576116ed612400565b60209081029190910181015182528181019290925260409081016000208151610120810183528154815260018201546001600160a01b0390811694820194909452600282015490931691830191909152600381015460608301526004810154608083015260058101805460a084019190611766906123c5565b80601f0160208091040260200160405190810160405280929190818152602001828054611792906123c5565b80156117df5780601f106117b4576101008083540402835291602001916117df565b820191906000526020600020905b8154815290600101906020018083116117c257829003601f168201915b505050918352505060068201546020820152600782015460409091019060ff16600581111561181057611810611cd0565b600581111561182157611821611cd0565b81526020016007820160019054906101000a900460ff16600581111561184957611849611cd0565b600581111561185a5761185a611cd0565b8152505090508083838151811061187357611873612400565b602002602001018190525050808061188a90612416565b9150506116c9565b61189a611bc6565b6001600160a01b0380831660009081526020818152604091829020825160a0810190935280549093168252600183018054929392918401916118db906123c5565b80601f0160208091040260200160405190810160405280929190818152602001828054611907906123c5565b80156119545780601f1061192957610100808354040283529160200191611954565b820191906000526020600020905b81548152906001019060200180831161193757829003601f168201915b5050505050815260200160028201805461196d906123c5565b80601f0160208091040260200160405190810160405280929190818152602001828054611999906123c5565b80156119e65780601f106119bb576101008083540402835291602001916119e6565b820191906000526020600020905b8154815290600101906020018083116119c957829003601f168201915b5050509183525050600382015460209091019060ff166005811115611a0d57611a0d611cd0565b6005811115611a1e57611a1e611cd0565b81526020016004820180548060200260200160405190810160405280929190818152602001828054801561146457602002820191906000526020600020905b815481526020019060010190808311611a5d575050505050815250509050919050565b6040805160e0810190915260008082526020820190815260200160608152602001600081526020016060815260200160006001600160a01b03168152602001606081525090565b828054611ad3906123c5565b90600052602060002090601f016020900481019282611af55760008555611b3b565b82601f10611b0e57805160ff1916838001178555611b3b565b82800160010185558215611b3b579182015b82811115611b3b578251825591602001919060010190611b20565b50611b47929150611c7d565b5090565b828054611b57906123c5565b90600052602060002090601f016020900481019282611b795760008555611b3b565b82601f10611b8a5780548555611b3b565b82800160010185558215611b3b57600052602060002091601f016020900482015b82811115611b3b578254825591600101919060010190611bab565b6040518060a0016040528060006001600160a01b03168152602001606081526020016060815260200160006005811115611c0257611c02611cd0565b8152602001606081525090565b6040518061012001604052806000815260200160006001600160a01b0316815260200160006001600160a01b031681526020016000815260200160008152602001606081526020016000815260200160006005811115611c7157611c71611cd0565b81526020016000905290565b5b80821115611b475760008155600101611c7e565b80356001600160a01b0381168114611ca957600080fd5b919050565b600060208284031215611cc057600080fd5b611cc982611c92565b9392505050565b634e487b7160e01b600052602160045260246000fd5b60068110611d0457634e487b7160e01b600052602160045260246000fd5b9052565b6000815180845260005b81811015611d2e57602081850181015186830182015201611d12565b81811115611d40576000602083870101525b50601f01601f19169290920160200192915050565b600081518084526020808501945080840160005b83811015611d8557815187529582019590820190600101611d69565b509495945050505050565b8051825260006020820151611da86020850182611ce6565b50604082015160e06040850152611dc260e0850182611d08565b90506060830151606085015260808301518482036080860152611de58282611d55565b91505060018060a01b0360a08401511660a085015260c083015184820360c0860152610dc88282611d08565b6000602080830181845280855180835260408601915060408160051b870101925083870160005b82811015611e6657603f19888603018452611e54858351611d90565b94509285019290850190600101611e38565b5092979650505050505050565b803560068110611ca957600080fd5b600060208284031215611e9457600080fd5b611cc982611e73565b6001600160a01b0385168152608060208201819052600090611ec190830186611d08565b8281036040840152611ed38186611d08565b915050610dc86060830184611ce6565b600060208284031215611ef557600080fd5b5035919050565b868152611f0c6020820187611ce6565b60c060408201526000611f2260c0830187611d08565b606083018690526001600160a01b038516608084015282810360a0840152611f4a8185611d08565b9998505050505050505050565b634e487b7160e01b600052604160045260246000fd5b600082601f830112611f7e57600080fd5b813567ffffffffffffffff80821115611f9957611f99611f57565b604051601f8301601f19908116603f01168101908282118183101715611fc157611fc1611f57565b81604052838152866020858801011115611fda57600080fd5b836020870160208301376000602085830101528094505050505092915050565b6000806000806080858703121561201057600080fd5b843567ffffffffffffffff8082111561202857600080fd5b61203488838901611f6d565b9550602087013591508082111561204a57600080fd5b5061205787828801611f6d565b93505061206660408601611e73565b915061207460608601611c92565b905092959194509250565b600080600080600060a0868803121561209757600080fd5b6120a086611c92565b94506120ae60208701611c92565b93506040860135925060608601359150608086013567ffffffffffffffff8111156120d857600080fd5b6120e488828901611f6d565b9150509295509295909350565b8981526001600160a01b03898116602083015288166040820152606081018790526080810186905261012060a0820181905260009061213283820188611d08565b9150508460c083015261214860e0830185611ce6565b612156610100830184611ce6565b9a9950505050505050505050565b60008060006060848603121561217957600080fd5b61218284611c92565b9250602084013567ffffffffffffffff81111561219e57600080fd5b6121aa86828701611f6d565b925050604084013590509250925092565b60018060a01b0381511682526000602082015160a060208501526121e260a0850182611d08565b9050604083015184820360408601526121fb8282611d08565b91505060608301516122106060860182611ce6565b5060808301518482036080860152610dc88282611d55565b6000602080830181845280855180835260408601915060408160051b870101925083870160005b82811015611e6657603f1988860301845261226b8583516121bb565b9450928501929085019060010161224f565b602081526000611cc96020830184611d90565b6020810161229e8284611ce6565b92915050565b600080604083850312156122b757600080fd5b6122c083611c92565b946020939093013593505050565b60006020808301818452808551808352604092508286019150828160051b87010184880160005b838110156123a457603f19898403018552815180518452878101516001600160a01b0390811689860152878201511687850152606080820151908501526080808201519085015260a080820151610120828701819052919061235983880182611d08565b9250505060c080830151818701525060e08083015161237a82880182611ce6565b5050610100918201519161239086820184611ce6565b5095880195935050908601906001016122f5565b509098975050505050505050565b602081526000611cc960208301846121bb565b600181811c908216806123d957607f821691505b602082108114156123fa57634e487b7160e01b600052602260045260246000fd5b50919050565b634e487b7160e01b600052603260045260246000fd5b600060001982141561243857634e487b7160e01b600052601160045260246000fd5b5060010190565b60008261245c57634e487b7160e01b600052601260045260246000fd5b50069056fea2646970667358221220c646c307e4da4cc8c578ee06bb54c8fb8c68865f18d95264e31e3dafded78e2664736f6c63430008090033",
  "linkReferences": {},
  "deployedLinkReferences": {}
}